:020000040000FA
:060000000A128A110C280F
:10000800FE00030EF1000A08F2000A128A111A29EA
:100018000A128A110F2883010A128A11EF28831203
:10002800031305191828192859280330F5008A30B0
:10003800F4005530F300F30B1F28F40B1F28F50BC1
:100048001F28262883120313051D2B282C2859281E
:1000580006140330F5008A30F4005530F300F30B32
:100068003328F40B3328F50B33283A28F601F70127
:100078001D3076067704031D42284328462883123C
:10008800031306100130F6070318F70A0030F707C4
:100098007708803AFF0080307F02031D55281F3003
:1000A8007602031C582859283C2883120313851903
:1000B8005E285F289F280330F5008A30F400553009
:1000C800F300F30B6528F40B6528F50B65286C28FD
:1000D80083120313851D712872289F288614033004
:1000E800F5008A30F4005530F300F30B7928F40B4F
:1000F8007928F50B79288028F801F9011D30780650
:100108007904031D882889288C28831203138610F4
:100118000130F8070318F90A0030F9077908803A1E
:10012800FF0080307F02031D9B281F307802031CCC
:100138009E289F288228080003308316031788000A
:1001480089018316031305148514051585150610F2
:100158008610831203138501860187018316031312
:100168000F178F160F160F148B170B170C178312F8
:1001780003130C131F139F171F14C3309F05103050
:10018800F300F30BC5280000831603139F131F12F7
:100198009F1287140715FA3092003F308312031319
:1001A80097051708F0390C3897001D08F0390C38F6
:1001B8009D000F309500CF3097058C1003309204C6
:1001C80012158C1CE828E928E5288C1083160313DF
:1001D8008710071108000A128A11A0200A128A1132
:1001E8000A128A1113200A128A11831203139F1804
:1001F800FE28FF28F4281F0CFA007A0C0F39013A60
:10020800031D072908290B29C3309F050F291F083B
:10021800C33904389F002130FA00FA0B11298312E0
:1002280003139F14F4280A128A110C28831203134B
:100238000C1F1F29202937291F0CF000700C0F39BB
:10024800003A031D2829292930291E08F000031027
:10025800700C7C3E9B0036291E08F0000310700CC1
:100268007C3E95000C1372088A00710E8300FE0E06
:040278007E0E0900ED
:04400E00D420FF3F7C
:00000001FF
